:10050900120528E4FF1204E08F0B8E0A8D098C086E
:0F05190012048C7F0A12054F7F0D12054F80E4EC
:0C053700E4F5AA8F86E5AA60FCAF8622DE
:0204E000AE0765
:1004E200E4FDC29475D5537F061205378F0CEEC416
:1004F200333354C0FF120537AE07E4FF120537D27B
:0605020094E4FFFEFDFC85
:0105080022D0
:0505570000000000009F
:0F052800759850758920758BFD758DFDD28E22CB
:08054F008F993099FDC2992239
:0704190012023F8E108F114B
:040420008E138F1494
:1004240078157C007D007BFF7A0579577E007F0577
:10043400120390E4FBE514451370057F3002054F69
:10044400D3E5149400E51394004027AE13AF147C55
:10045400007D0A1203B6ED2430FF74152BF8A607AD
:10046400AE13AF147C007D0A1203B68E138F140BE7
:1004740080CE1BC3EB64809480400C74152BF8E68B
:07048400FF12054F1B80EC85
:01048B00224E
:08048C008F0F8E0E8D0D8C0CFC
:100494001204197F2E12054FE4F512AC10AD11E4CD
:1004A400120206A804A905AA06AB07AF0FAE0EAD4B
:1004B4000DAC0C12000612023F8E108F11E4FFFEE9
:1004C4007D207C41AB0FAA0EA90DA80C1200FB12D3
:0B04D40004190512E512C3940340C098
:0104DF0022FA
:100003000202ABE86480F8E933E83360110460F07E
:10001300ED33EC337009E8FCE9FDEAFEEBFF220463
:1000230060DED3EB9FEA9EE99DE8C2E78CF0C2F75E
:1000330095F0400CE8CCF8E9CDF9EACEFAEBCFFB2A
:1000430012027685D0F05804700320D5B3E804700B
:10005300075002B2D50202B592D5EC0460F7E4CCA6
:10006300C0E0C398F8603B94186008400DD0E0FBF3
:1000730002028DE4FBFAC9FC8028E830E406E4C9F7
:10008300FBE4CAFCE830E305E4C9CACBFCE8540747
:100093006010F8C3E913F9EA13FAEB13FBEC13FC52
:1000A300D8F130F52FC3E49CFCEF9BFFEE9AFEEDF5
:1000B30099FDD0E0FBEF4E4D4C701222DB030202A0
:1000C300B2EC2CFCEF33FFEE33FEED33FDED30E706
:1000D300EB02028DEF2BFFEE3AFEED39FDD0E0FB94
:1000E30050130BBB00030202B5ED13FDEE13FEEF3D
:0800F30013FFEC13FC02028D67
:1000FB00EC4D6011E8497017ED33EC3304600DE4FF
:10010B00FCFFFEFD22E933E8330470F80202AB1268
:10011B00027658046009E4CC248150062850090269
:10012B0002B52840030202B2C0E0EB4A7044B9802A
:10013B0006D0E0FB0202A1EF4E701CBD8008EBFF66
:10014B00EAFEE9FD80EBE98DF0A4FEE5F00201E4A7
:10015B00E9CDF9EAFEEBFFEF89F0A4FCE5F0CE89DF
:10016B00F0A42EFFE435F0CD89F0A42DFEE435F09C
:10017B008067EF4E7005BD80D780C3EF8BF0A4ACCA
:10018B00F0EE8BF0A42CFCE435F0F8EF8AF0A42C05
:10019B00E5F038FCE433CB8DF0A42CFCE5F03BF818
:1001AB00EE8AF0A42CFCE5F038F8E433CF89F0A408
:1001BB002CFCE5F038CF3400CE89F0A42FFFE5F00E
:1001CB003EFEE433C98DF0A42EFEE5F039CD8AF066
:1001DB00A42FFFE5F03EFEE43DFD33D0E0FB5007DE
:1001EB000BBB000F0202B5EC2CFCEF33FFEE33FE22
:0601FB00ED33FD02028D50
:1002010075F020800E75F010800575F0087D007E78
:10021100007F003392D530D50312040BEC3340102C
:10022100EF33FFEE33FEED33FDEC33FCD5F0ED2281
:0E023100E5F0247EA2D513CC92E7CDCEFF22BD
:10023F00EDD2E7CD33EC3392D524814006E4FFFEB7
:10024F00FDFC22FCE4CFCECDCC24E0501174FF8016
:10025F00EDC3CC13CCCD13CDCE13CECF13CF0470B3
:07026F00F030D5DE02040BA4
:10027600E9D2E7C933E833F892D5EDD2E7CD33ECCE
:0702860033FC5002B2D52247
:10028D00EC30E7100FBF000C0EBE00080DBD0004D2
:10029D000BEB6014A2D5EB13FCED92E7FD2274FF7E
:1002AD00FCFDFEFF22E480F8A2D574FF13FC7D80D7
:0302BD00E480EFEB
:03000000020543B3
:0C054300787FE4F6D8FD758119020509E7
:1002C000E709F608DFFA8046E709F208DFFA803E20
:1002D00088828C83E709F0A3DFFA8032E309F6080D
:1002E000DFFA8078E309F208DFFA807088828C8375
:1002F000E309F0A3DFFA806489828A83E0A3F60829
:10030000DFFA805889828A83E0A3F208DFFA804C02
:1003100080D280FA80C680D4806980F280338010D9
:1003200080A680EA809A80A880DA80E280CA803342
:1003300089828A83ECFAE493A3C8C582C8CCC583BA
:10034000CCF0A3C8C582C8CCC583CCDFE9DEE7808A
:100350000D89828A83E493A3F608DFF9ECFAA9F009
:10036000EDFB2289828A83ECFAE0A3C8C582C8CC5F
:10037000C583CCF0A3C8C582C8CCC583CCDFEADE78
:10038000E880DB89828A83E493A3F208DFF980CCDA
:1003900088F0EF60010E4E60C388F0ED2402B404D3
:1003A0000050B9F582EB2402B4040050AF2323457A
:0603B0008223900310738C
:1003B600BC000BBE0029EF8DF084FFADF022E4CC2B
:1003C600F875F008EF2FFFEE33FEEC33FCEE9DECF4
:1003D600984005FCEE9DFE0FD5F0E9E4CEFD22ED3A
:1003E600F8F5F0EE8420D21CFEADF075F008EF2F84
:1003F600FFED33FD4007985006D5F0F222C398FD75
:050406000FD5F0EA2211
:0E040B00C3E49FFFE49EFEE49DFDE49CFC2202
:00000001FF
