:1001180020202020202020202020202020003738C8
:1001280039253435362A3132332D30303D2B616450
:1001380067206A6D70207376792020202020626500
:1001480068206B6E712074777A20202020206366E7
:0E01580069206C307220757820202020202035
:09025700A2B182B082B282B3228E
:10016600C2B4D2B7D2B6D2B512025740037F00222C
:10017600C2B5D2B7D2B6D2B412025740037F01221B
:10018600C2B6D2B7D2B5D2B412025740037F02220A
:10019600C2B7D2B4D2B6D2B512025740027F0322FA
:1002330020B0037F002220B1037F012220B2037F7D
:08024300022220B3027F032216
:1000C100120166AD07120233AC07ED650F600AE459
:1000D100F512C3E50F950FF50FEC65106005E4F51A
:1000E100128C10AF12EF3395E0FEEFC4F8540FC835
:1000F10068FFEEC454F048FE74262FF58274013E69
:10010100F58375F004ED120209E5822CF582E435E0
:0601110083F583E493FF77
:0101170022C5
:10000300750CFF1201A674FFF50DF50EB29275087B
:1000130000750964750A00750B7DC2B7C2B6C2B517
:10002300C2B4120257403BE50E6403450D700874D9
:10003300FFF50DF50E802BE50EB4FF26E50DB4FF9D
:1000430021050CD3E50C6480948F40167FC0120207
:10005300697BFF7A0179181201CB7F60120269E490
:10006300F50C050EE50E7002050D1200C18F13E5A8
:100073000C24C0FF120269AF131202601202574030
:1000830008750A00750B7D80F3750800750964E532
:100093000B150B7002150AD3E50B9400E50A9400C7
:1000A300400302001DE509150970021508D3E5098F
:0E00B3009400E50894004003020017020009C3
:1001A6007F057E001202157F021202697F0112028C
:1001B600697F0C1202697F061202697F3812026992
:0501C6007F80020269C8
:05026900C295020260D5
:090260008FA0C296D297C297222A
:1001CB008B0F8A108911AB0FAA10A9111201F060C5
:1001DB00130511E5117002051014F91201F0FF124D
:0501EB00000080E2228B
:100215007DC87C00D3EF9400EE94004007EF1F707B
:0D022500F31E80F0ED1D70011CED4C70E724
:0102320022A9
:0300000002024BAE
:0C024B00787FE4F6D8FD758113020003F3
:1001F000BB010689828A83E0225002E722BBFE020D
:09020000E32289828A83E493223F
:0C020900A42582F582E5F03583F5832200
:00000001FF
