:10015F0072616D616B726973686E61006B6F6E6453
:07016F006170616C6C690016
:100128007F021201917F381201917F061201917F9F
:0E0138000E1201917F011201917F8002019150
:05019100C280020176AE
:05019600D28002017699
:0F0176008FA0C281D282C2827F027E0002014628
:10014600D3EF9400EE9400400F7DFADDFE7DE8DDEE
:08015600FEEF1F70EB1E80E8B4
:01015E00227E
:1000E2008B1E8A1F8920AB1EAA1FA92012007460D2
:1000F200130520E5207002051F14F9120074FF1287
:05010200019680E222DD
:04000300AB07AA0697
:10000700E4F51CF51DD3EB9400EA940040367C0020
:100017007D0AAF03AE0212008DED2430FFE43CFEF3
:10002700051DE51D7002051C1425E02408F8A60629
:1000370008A6077C007D0AAF03AE0212008DAA0650
:10004700AB0780C1E51D151D7002151CC3E51C64B7
:100057008094804017E51D25E02408F808E6FF1284
:0C0067000196E51D151D70E4151C80E0DD
:01007300226A
:100107001201287BFF7A01795F1200E27FC012019A
:10011700917BFF7A01796B1200E27F0F12019180C8
:01012700FED9
:0300000002018575
:0C018500787FE4F6D8FD758120020107A8
:10007400BB010689828A83E0225002E722BBFE028A
:09008400E32289828A83E49322BD
:10008D00BC000BBE0029EF8DF084FFADF022E4CC57
:10009D00F875F008EF2FFFEE33FEEC33FCEE9DEC20
:1000AD00984005FCEE9DFE0FD5F0E9E4CEFD22ED66
:1000BD00F8F5F0EE8420D21CFEADF075F008EF2FB0
:1000CD00FFED33FD4007985006D5F0F222C398FDA1
:0500DD000FD5F0EA223E
:00000001FF
