:090170005631344845384B360085
:100107007F021201797F381201797F061201797F08
:0B011700011201797F0A7E0002013C0A
:05017900C280020155E7
:05017E00D280020155D2
:0F0155008FA0C281D282C2827F027E0002013C53
:10013C00D3EF9400EE9400400F7DFADDFE7DE8DDF8
:08014C00FEEF1F70EB1E80E8BE
:010154002288
:1000E2008B088A09890AAB08AA09A90A1200746056
:1000F20013050AE50A7002050914F9120074FF12C9
:05010200017E80E222F5
:04000300AB07AA0697
:10000700E4F51CF51DD3EB9400EA940040367C0020
:100017007D0AAF03AE0212008DED2430FFE43CFEF3
:10002700051DE51D7002051C1425E02408F8A60629
:1000370008A6077C007D0AAF03AE0212008DAA0650
:10004700AB0780C1E51D151D7002151CC3E51C64B7
:100057008094804017E51D25E02408F808E6FF1284
:0C006700017EE51D151D70E4151C80E0F5
:01007300226A
:100122001201077FD27E041200037FC01201797B85
:0A013200FF7A0179701200E280FEEE
:0300000002016496
:0C016400787FE4F6D8FD75811D020122B1
:10007400BB010689828A83E0225002E722BBFE028A
:09008400E32289828A83E49322BD
:10008D00BC000BBE0029EF8DF084FFADF022E4CC57
:10009D00F875F008EF2FFFEE33FEEC33FCEE9DEC20
:1000AD00984005FCEE9DFE0FD5F0E9E4CEFD22ED66
:1000BD00F8F5F0EE8420D21CFEADF075F008EF2FB0
:1000CD00FFED33FD4007985006D5F0F222C398FDA1
:0500DD000FD5F0EA223E
:00000001FF
