:0D0532001D051F141417000000000000003C
:0D0525008F80C2A1D2A2C2A27F0202050EE9
:05054B00C2A00205251D
:05055000D2A002052508
:10049B007F0512050E7F3012054B7F0312050E7F71
:1004AB003012054B7F3012054B7F3812054B7F10F6
:1004BB0012054B7F0112054B7F0612054B7F0F0276
:0204CB00054BDF
:1004CD008B208A218922AB20AA21A9221202B06099
:1004DD00130522E5227002052114F91202B0FF1254
:0504ED00055080E22231
:0F038F008F168E158D148C131201398E178F183F
:04039E008E088F092D
:1003A200780A7C007D007BFF7A05793A7E007F0522
:1003B20012028AE510450F70057F30020550D3E521
:1003C200129400E51164809480402FAE0FAF107C30
:1003D200007D0A1202F6ED2430FF740A2509F8A600
:1003E20007AE0FAF107C007D0A1202F68E0F8F103F
:1003F2000509E50970C8050880C4E50915097002F8
:100402001508C3E50894004014740A2509F8E6FFAC
:0D041200120550E509150970E9150880E58F
:01041F0022BA
:1004200012038F7F2E120550E4F519AF16AE15ADED
:1004300014AC13C004C005C006C007AC17AD18EC5F
:10044000120100A804A905AA06AB07D007D006D060
:1004500005D00412000612038F0519E519C3940391
:0204600040C991
:010462002277
:0A0463008B1A8A1B891C8C1D8D1E4C
:10046D007F4012054BE4F51FC3E51F951EE4951D56
:10047D005017AB1AAA1BA91C851F82758300120287
:0E048D00C9FF120550051F80DF7F8002054B5E
:10050E00EFD3940040107D7A7C00ED1D70011CED40
:06051E004C70F71F80EA9B
:0105240022B4
:1004F20012049B7BFF7A0579327D087C001204632B
:0C0502007F301205507F3012055080FE43
:100003000201A5E86480F8E933E83360110460F085
:10001300ED33EC337009E8FCE9FDEAFEEBFF220463
:1000230060DED3EB9FEA9EE99DE8C2E78CF0C2F75E
:1000330095F0400CE8CCF8E9CDF9EACEFAEBCFFB2A
:1000430012017085D0F05804700320D5B3E8047012
:10005300075002B2D50201AF92D5EC0460F7E4CCAD
:10006300C0E0C398F8603B94186008400DD0E0FBF3
:10007300020187E4FBFAC9FC8028E830E406E4C9FE
:10008300FBE4CAFCE830E305E4C9CACBFCE8540747
:100093006010F8C3E913F9EA13FAEB13FBEC13FC52
:1000A300D8F130F52FC3E49CFCEF9BFFEE9AFEEDF5
:1000B30099FDD0E0FBEF4E4D4C701222DB030201A1
:1000C300ACEC2CFCEF33FFEE33FEED33FDED30E70C
:1000D300EB020187EF2BFFEE3AFEED39FDD0E0FB9B
:1000E30050130BBB00030201AFED13FDEE13FEEF44
:0800F30013FFEC13FC0201876E
:1000FB0075F020800E75F010800575F0087D007E80
:10010B00007F003392D530D50312032CEC33401013
:10011B00EF33FFEE33FEED33FDEC33FCD5F0ED2288
:0E012B00E5F0247EA2D513CC92E7CDCEFF22C4
:10013900EDD2E7CD33EC3392D524814006E4FFFEBE
:10014900FDFC22FCE4CFCECDCC24E0501174FF801D
:10015900EDC3CC13CCCD13CDCE13CECF13CF0470BA
:07016900F030D5DE02032C8B
:10017000E9D2E7C933E833F892D5EDD2E7CD33ECD5
:0701800033FC5002B2D5224E
:10018700EC30E7100FBF000C0EBE00080DBD0004D9
:100197000BEB6014A2D5EB13FCED92E7FD2274FF85
:1001A700FCFDFEFF22E480F8A2D574FF13FC7D80DE
:0301B700E480EFF2
:0300000002053FB7
:0C053F00787FE4F6D8FD7581220204F2FA
:1001BA00E709F608DFFA8046E709F208DFFA803E27
:1001CA0088828C83E709F0A3DFFA8032E309F60814
:1001DA00DFFA8078E309F208DFFA807088828C837C
:1001EA00E309F0A3DFFA806489828A83E0A3F60830
:1001FA00DFFA805889828A83E0A3F208DFFA804C0A
:10020A0080D280FA80C680D4806980F280338010E0
:10021A0080A680EA809A80A880DA80E280CA803349
:10022A0089828A83ECFAE493A3C8C582C8CCC583C1
:10023A00CCF0A3C8C582C8CCC583CCDFE9DEE78091
:10024A000D89828A83E493A3F608DFF9ECFAA9F010
:10025A00EDFB2289828A83ECFAE0A3C8C582C8CC66
:10026A00C583CCF0A3C8C582C8CCC583CCDFEADE7F
:10027A00E880DB89828A83E493A3F208DFF980CCE1
:10028A0088F0EF60010E4E60C388F0ED2402B404DA
:10029A000050B9F582EB2402B4040050AF23234581
:0602AA00822390020A739A
:1002B000BB010689828A83E0225002E722BBFE024C
:0902C000E32289828A83E493227F
:1002C900BB010CE58229F582E5833AF583E02250EA
:1002D90006E92582F8E622BBFE06E92582F8E22234
:0D02E900E58229F582E5833AF583E493224E
:1002F600C2D5EC30E709B2D5E4C39DFDE49CFCEE23
:1003060030E715B2D5E4C39FFFE49EFE12033AC35D
:10031600E49DFDE49CFC800312033A30D507C3E458
:060326009FFFE49EFE2291
:0E032C00C3E49FFFE49EFEE49DFDE49CFC22E2
:10033A00BC000BBE0029EF8DF084FFADF022E4CCA7
:10034A00F875F008EF2FFFEE33FEEC33FCEE9DEC70
:10035A00984005FCEE9DFE0FD5F0E9E4CEFD22EDB6
:10036A00F8F5F0EE8420D21CFEADF075F008EF2F00
:10037A00FFED33FD4007985006D5F0F222C398FDF1
:05038A000FD5F0EA228E
:00000001FF
