:090173005631344845384B360082
:100107007F0212017C7F3812017C7F0612017C7FFF
:0E0117000E12017C7F0112017C7F8002017CB0
:05017C00C280020158E1
:05018100D280020158CC
:0F0158008FA0C281D282C2827F027E0002013F4D
:10013F00D3EF9400EE9400400F7DFADDFE7DE8DDF5
:08014F00FEEF1F70EB1E80E8BB
:010157002285
:1000E2008B088A09890AAB08AA09A90A1200746056
:1000F20013050AE50A7002050914F9120074FF12C9
:05010200018180E222F2
:04000300AB07AA0697
:10000700E4F51CF51DD3EB9400EA940040367C0020
:100017007D0AAF03AE0212008DED2430FFE43CFEF3
:10002700051DE51D7002051C1425E02408F8A60629
:1000370008A6077C007D0AAF03AE0212008DAA0650
:10004700AB0780C1E51D151D7002151CC3E51C64B7
:100057008094804017E51D25E02408F808E6FF1284
:0C0067000181E51D151D70E4151C80E0F2
:01007300226A
:100125001201077FD27E041200037FC012017C7B7F
:0A013500FF7A0179731200E280FEE8
:0300000002016793
:0C016700787FE4F6D8FD75811D020125AB
:10007400BB010689828A83E0225002E722BBFE028A
:09008400E32289828A83E49322BD
:10008D00BC000BBE0029EF8DF084FFADF022E4CC57
:10009D00F875F008EF2FFFEE33FEEC33FCEE9DEC20
:1000AD00984005FCEE9DFE0FD5F0E9E4CEFD22ED66
:1000BD00F8F5F0EE8420D21CFEADF075F008EF2FB0
:1000CD00FFED33FD4007985006D5F0F222C398FDA1
:0500DD000FD5F0EA223E
:00000001FF
