:100096000102030405060708090A0B0C0D0E0F10D2
:0900B200A2B582B482B682B72225
:0900BB00D2B3D2B2D2B1D2B0220C
:0900C400D2B7D2B6D2B5D2B422F3
:100003001200C41200BB1200B240FBC2B0D2B3D282
:10001300B2D2B11200B24005E4F508803AC2B1D2BF
:10002300B3D2B2D2B0120000EF4E70057508018052
:1000330026C2B2D2B3D2B1D2B0120000EF4E7005D5
:100043007508028012C2B3D2B2D2B1D2B01200008C
:10005300EF4E700375080320B405E4F509801620FC
:10006300B505750901800E20B605750902800620C5
:10007300B703750903E50825E025E02496F582E436
:100083003400F583E5822509F582E43583F583E4BD
:0200930093FFD9
:010095002248
:0700CD001200038FA080F96F
:030000000200A655
:0C00A600787FE4F6D8FD7581090200CDDA
:00000001FF
