:0603690075D550D294226C
:05033300120338AF06C3
:0C03380075AA008F86E5AA60FCAF862243
:08036100C294120338D2942269
:10030800AE07AC03C2947F05120333AF051203385E
:08031800AF04120338D2942255
:10032000AE05AD07C2947F02120338AF0512033346
:03033000D2942242
:02034400AE0702
:0E034600C2947F031203337FFF120338D29458
:010354002286
:0300030002036F86
:06036F00751501C2893280
:0603750043A881D288229A
:04037B007F46DFFEDC
:01037F00225B
:100201001203691203757FC012036112037B7B80A5
:100211007DE07F0F1203087B057D077F0F12030826
:100221007D017F2A1203207DF17F291203207DC5E4
:100231007F281203207D1F7F2B1203207D207F60EA
:100241001203207D207F701203207B0F7D0F7F0C16
:100251001203087B407DE07F0F1203087F0E12031B
:10026100445307E0BF40ECE4FB7DE07F0F0203084D
:060006008B1F8A208921F6
:10000C0090000312018AF522120171B4010FE92448
:10001C0003F9E43AFA12017144401201B7AB1FAA7A
:10002C0020A92190000412018A24BA605624F07091
:10003C00030200DC2420600302012A90000112015B
:10004C00C9AEF07803CEC313CE13D8F9FD7F3112AD
:10005C000320AB1FAA20A9219000011201C9AEF008
:10006C007805CEC313CE13D8F954E0FD7F321203BA
:10007C0020AB1FAA20A92190000312018AFD7F3515
:10008C00020127AB1FAA20A9219000011201C9AEC1
:10009C00F07803CEC313CE13D8F9FD7F41120320A1
:1000AC00AB1FAA20A9219000011201C9AEF078055E
:1000BC00CEC313CE13D8F954E0FD7F42120320AB0C
:1000CC001FAA20A92190000312018AFD7F45804BB5
:1000DC00AB1FAA20A9219000011201C9AEF0780330
:1000EC00CEC313CE13D8F9FD7F51120320AB1FAA38
:1000FC0020A9219000011201C9AEF07805CEC313DE
:10010C00CE13D8F954E0FD7F52120320AB1FAA2066
:10011C00A92190000312018AFD7F55120320C2947D
:10012C00E522603E7F02120338AB1FAA20A9219062
:10013C00000412018AFF120338E4F523E523C3956A
:10014C0022501FAB1FE5212405F9E43520FA7E006F
:10015C00E92523F9EE3AFA120171FF12033805234F
:04016C0080DAD294CF
:01017000226C
:100271008B188A19891A750B01E51ED39400401F4A
:10028100AB187E00E51A251EF9EE3519FA90FFFF2D
:1002910012018AFF740C251EF8A607151E80DA8D3F
:1002A10008851C09851D0A750C367B007A007908C2
:1002B100120006E4F5157F81120361E51560FCE487
:0802C100FB7D077F2C020308FE
:1002C900751601751702120201A2B782A740FA201A
:1002D900A7147B007A007916751C00751D01751E1F
:1002E90001E4FD12027120B7E07B007A00791775ED
:0F02F9001C00751D02751E01E4FD12027180CA02
:03000000020355A3
:0C035500787FE4F6D8FD7581230202C910
:10017100BB010689828A83E0225002E722BBFE028C
:09018100E32289828A83E49322BF
:10018A00BB010CE58229F582E5833AF583E022502A
:10019A0006E92582F8E622BBFE06E92582F8E22274
:0D01AA00E58229F582E5833AF583E493228E
:1001B700BB010689828A83F0225002F722BBFE0127
:0201C700F32221
:1001C900BB0110E58229F582E5833AF583E0F5F074
:1001D900A3E0225009E92582F886F008E622BBFE51
:1001E9000AE92582F8E2F5F008E222E5832AF58397
:0801F900E993F5F0A3E993225C
:00000001FF
