:0603670075D550D294226E
:05033100120336AF06C7
:0C03360075AA008F86E5AA60FCAF862245
:08035F00C294120336D294226D
:10030600AE07AC03C2947F05120331AF0512033664
:08031600AF04120336D2942259
:10031E00AE05AD07C2947F02120336AF051203314C
:03032E00D2942244
:02034200AE0704
:0E034400C2947F031203317FFF120336D2945E
:010352002288
:0300030002036D88
:06036D00751501C2893282
:0603730043A881D288229C
:040379007F46DFFEDE
:01037D00225D
:100256001203671203737FC012035F1203797B8058
:100266007DE07F0F1203067B057D077F0F120306D5
:100276007D017F2A12031E7DF17F2912031E7DC593
:100286007F2812031E7D1F7F2B12031E7D207F6099
:1002960012031E7D207F7012031E7B0F7D0F7F0CC5
:1002A6001203067B407DE07F0F1203067F0E1203CA
:1002B600425307E0BF40ECE4FB7DE07F0F020306FC
:060006008B168A17891811
:10000C00900004120165646670557F65120342AB63
:10001C0016AA17A918900003EF1201A47F6112030E
:10002C00428F19EF75F008A4FFAB16AA17A9189008
:10003C000001E5F08FF01202137F621203428F1958
:10004C00E519C4135407F519531907AB16AA17A9C8
:10005C0018900001E48519F01201C67F6080537F6F
:10006C0075120342AB16AA17A918900003EF1201E0
:10007C00A47F711203428F19EF75F008A4FFAB1621
:10008C00AA17A918900001E5F08FF01202137F72E5
:10009C001203428F19E519C4135407F519531907A4
:1000AC00AB16AA17A918900001E48519F01201C625
:1000BC007F701203428F1AE51AAB16AA17A91830D3
:1000CC00E30474018001E4120192AB16E5182403D9
:1000DC00F9E43517FA12014C540F120192AB16AA1F
:1000EC0017A91812014C7057C2947F031203368F54
:1000FC0019AB16AA17A918900004120165FF120378
:10010C00368F19E4F51BAB16AA17A9189000031229
:10011C000165FFE51BC39F50247FFF1203368F1927
:10012C00AB16E5182405F9E43517FA7E00E9251B12
:0F013C00F9EE3AFAE519120192051B80C9D29427
:01014B002291
:1002C600E4FB7D077F2C120306E5157005750C66A9
:1002D60080F77B007A007908120006E4F515E50838
:0602E6007003850D1C22CF
:1002EC001202561202C6E51CB40104C2A7D2B7E52D
:0A02FC001CB402EFC2B7D2A780E9DC
:03000000020353A5
:0C035300787FE4F6D8FD75811D0202ECF5
:10014C00BB010689828A83E0225002E722BBFE02B1
:09015C00E32289828A83E49322E4
:10016500BB010CE58229F582E5833AF583E022504F
:1001750006E92582F8E622BBFE06E92582F8E22299
:0D018500E58229F582E5833AF583E49322B3
:10019200BB010689828A83F0225002F722BBFE014C
:0201A200F32246
:1001A400F8BB010DE58229F582E5833AF583E8F091
:1001B400225006E92582C8F622BBFE05E92582C83D
:0201C400F22225
:1001C600BB010DC58229C582C5833AC5830202409B
:1001D6005011C58229F808E5F026F618F5F0E582F3
:1001E60036F622BBFE11C58229F808E225F0F5F0A5
:1001F600F218E23582F222F8E58229F582E5832AB1
:0D020600F58374019325F0F5F0E4933822A0
:10021300F8BB0111E58229F582E5833AF583E8F01D
:10022300E5F0A3F0225009E92582C8F608A6F022DA
:0D023300BBFE09E92582C8F2E5F008F222C1
:10024000C5F0F8A3E028F0C5F0F8E5821582700249
:060250001583E038F022E6
:00000001FF
