:10007A000102030405060708090A0B0C0D0E0F10EE
:04008A000105090D56
:0A008E00E5B054F064F06001C322F5
:10006100750E00750F01750C00750D01750A00758F
:080071000B017508007509017F
:010079002264
:10000000120061E5B064FE701CFEEEC3940450F370
:10001000EE90008A9344F0F5B012008E4004AC06D6
:1000200080E10E80E5E4FEEEC394045033EE9000D0
:100030008A93C3940450047F0180027F00E5B0548A
:10004000F0B5070122EC25E025E0247AF582E434BE
:1000500000F583E5822DF582E43583F583E493FF93
:01006000227D
:00000001FF
